{
  "contractName": "Crowdfunding",
  "abi": [
    {
      "inputs": [],
      "stateMutability": "nonpayable",
      "type": "constructor"
    },
    {
      "inputs": [],
      "name": "cont",
      "outputs": [
        {
          "internalType": "uint256",
          "name": "",
          "type": "uint256"
        }
      ],
      "stateMutability": "view",
      "type": "function",
      "constant": true
    },
    {
      "inputs": [],
      "name": "extra",
      "outputs": [
        {
          "internalType": "uint256",
          "name": "",
          "type": "uint256"
        }
      ],
      "stateMutability": "view",
      "type": "function",
      "constant": true
    },
    {
      "inputs": [],
      "name": "manager",
      "outputs": [
        {
          "internalType": "address",
          "name": "",
          "type": "address"
        }
      ],
      "stateMutability": "view",
      "type": "function",
      "constant": true
    },
    {
      "inputs": [],
      "name": "numRequests",
      "outputs": [
        {
          "internalType": "uint256",
          "name": "",
          "type": "uint256"
        }
      ],
      "stateMutability": "view",
      "type": "function",
      "constant": true
    },
    {
      "inputs": [
        {
          "internalType": "uint256",
          "name": "",
          "type": "uint256"
        }
      ],
      "name": "requests",
      "outputs": [
        {
          "internalType": "string",
          "name": "category",
          "type": "string"
        },
        {
          "internalType": "string",
          "name": "description",
          "type": "string"
        },
        {
          "internalType": "address payable",
          "name": "recipient",
          "type": "address"
        },
        {
          "internalType": "uint256",
          "name": "deadline",
          "type": "uint256"
        },
        {
          "internalType": "uint256",
          "name": "target",
          "type": "uint256"
        },
        {
          "internalType": "uint256",
          "name": "raisedAmount",
          "type": "uint256"
        },
        {
          "internalType": "bool",
          "name": "completed",
          "type": "bool"
        },
        {
          "internalType": "uint256",
          "name": "noOfDonors",
          "type": "uint256"
        }
      ],
      "stateMutability": "view",
      "type": "function",
      "constant": true
    },
    {
      "inputs": [
        {
          "internalType": "uint256",
          "name": "i",
          "type": "uint256"
        }
      ],
      "name": "sendEth",
      "outputs": [],
      "stateMutability": "payable",
      "type": "function",
      "payable": true
    },
    {
      "inputs": [],
      "name": "getContractBalance",
      "outputs": [
        {
          "internalType": "uint256",
          "name": "",
          "type": "uint256"
        }
      ],
      "stateMutability": "view",
      "type": "function",
      "constant": true
    },
    {
      "inputs": [
        {
          "internalType": "string",
          "name": "_category",
          "type": "string"
        },
        {
          "internalType": "string",
          "name": "_description",
          "type": "string"
        },
        {
          "internalType": "address payable",
          "name": "_recipient",
          "type": "address"
        },
        {
          "internalType": "uint256",
          "name": "_time",
          "type": "uint256"
        },
        {
          "internalType": "uint256",
          "name": "_target",
          "type": "uint256"
        }
      ],
      "name": "createRequests",
      "outputs": [],
      "stateMutability": "nonpayable",
      "type": "function"
    },
    {
      "inputs": [
        {
          "internalType": "uint256",
          "name": "i",
          "type": "uint256"
        }
      ],
      "name": "makePayment",
      "outputs": [],
      "stateMutability": "nonpayable",
      "type": "function"
    }
  ],
  "bytecode": "0x608060405234801561001057600080fd5b5033600260006101000a81548173ffffffffffffffffffffffffffffffffffffffff021916908373ffffffffffffffffffffffffffffffffffffffff160217905550611419806100616000396000f3fe6080604052600436106100865760003560e01c8063566b978611610059578063566b9786146101355780636f9fb98a1461015e57806381d12c58146101895780639fb42b1f146101cd578063cfc54848146101f857610086565b8063079ce1ab1461008b578063190024e0146100b6578063481c6a75146100e15780635114cb521461010c575b600080fd5b34801561009757600080fd5b506100a0610214565b6040516100ad9190610be5565b60405180910390f35b3480156100c257600080fd5b506100cb61021a565b6040516100d89190610be5565b60405180910390f35b3480156100ed57600080fd5b506100f6610220565b6040516101039190610c41565b60405180910390f35b34801561011857600080fd5b50610133600480360381019061012e9190610c9c565b610246565b005b34801561014157600080fd5b5061015c60048036038101906101579190610e4d565b610444565b005b34801561016a57600080fd5b506101736105d0565b6040516101809190610be5565b60405180910390f35b34801561019557600080fd5b506101b060048036038101906101ab9190610c9c565b610668565b6040516101c4989796959493929190610fb2565b60405180910390f35b3480156101d957600080fd5b506101e26107ed565b6040516101ef9190610be5565b60405180910390f35b610212600480360381019061020d9190610c9c565b6107f3565b005b60015481565b60035481565b600260009054906101000a900473ffffffffffffffffffffffffffffffffffffffff1681565b600260009054906101000a900473ffffffffffffffffffffffffffffffffffffffff1673ffffffffffffffffffffffffffffffffffffffff163373ffffffffffffffffffffffffffffffffffffffff16146102d6576040517f08c379a00000000000000000000000000000000000000000000000000000000081526004016102cd906110b0565b60405180910390fd5b600460008281526020019081526020016000206004015460046000838152602001908152602001600020600501541015610345576040517f08c379a000000000000000000000000000000000000000000000000000000000815260040161033c9061111c565b60405180910390fd5b6000600460008381526020019081526020016000209050600015158160060160009054906101000a900460ff161515146103b4576040517f08c379a00000000000000000000000000000000000000000000000000000000081526004016103ab90611188565b60405180910390fd5b8060020160009054906101000a900473ffffffffffffffffffffffffffffffffffffffff1673ffffffffffffffffffffffffffffffffffffffff166108fc82600401549081150290604051600060405180830381858888f19350505050158015610422573d6000803e3d6000fd5b5060018160060160006101000a81548160ff0219169083151502179055505050565b600260009054906101000a900473ffffffffffffffffffffffffffffffffffffffff1673ffffffffffffffffffffffffffffffffffffffff163373ffffffffffffffffffffffffffffffffffffffff16146104d4576040517f08c379a00000000000000000000000000000000000000000000000000000000081526004016104cb906110b0565b60405180910390fd5b6000600460006005548152602001908152602001600020905060056000815480929190610500906111d7565b91905055508581600001908051906020019061051d929190610b29565b5084816001019080519060200190610536929190610b29565b50838160020160006101000a81548173ffffffffffffffffffffffffffffffffffffffff021916908373ffffffffffffffffffffffffffffffffffffffff16021790555082426105869190611220565b81600301819055508181600401819055506000816005018190555060008160060160006101000a81548160ff02191690831515021790555060008160070181905550505050505050565b6000600260009054906101000a900473ffffffffffffffffffffffffffffffffffffffff1673ffffffffffffffffffffffffffffffffffffffff163373ffffffffffffffffffffffffffffffffffffffff1614610662576040517f08c379a0000000000000000000000000000000000000000000000000000000008152600401610659906110b0565b60405180910390fd5b47905090565b600460205280600052604060002060009150905080600001805461068b906112a5565b80601f01602080910402602001604051908101604052809291908181526020018280546106b7906112a5565b80156107045780601f106106d957610100808354040283529160200191610704565b820191906000526020600020905b8154815290600101906020018083116106e757829003601f168201915b505050505090806001018054610719906112a5565b80601f0160208091040260200160405190810160405280929190818152602001828054610745906112a5565b80156107925780601f1061076757610100808354040283529160200191610792565b820191906000526020600020905b81548152906001019060200180831161077557829003601f168201915b5050505050908060020160009054906101000a900473ffffffffffffffffffffffffffffffffffffffff16908060030154908060040154908060050154908060060160009054906101000a900460ff16908060070154905088565b60055481565b6004600082815260200190815260200160002060030154421061084b576040517f08c379a000000000000000000000000000000000000000000000000000000000815260040161084290611323565b60405180910390fd5b60046000828152602001908152602001600020600401546004600083815260200190815260200160002060050154106108b9576040517f08c379a00000000000000000000000000000000000000000000000000000000081526004016108b09061138f565b60405180910390fd5b60006004600083815260200190815260200160002060080160003373ffffffffffffffffffffffffffffffffffffffff1673ffffffffffffffffffffffffffffffffffffffff168152602001908152602001600020541415610a0a5760046000828152602001908152602001600020600701600081548092919061093c906111d7565b9190505550600015156000803373ffffffffffffffffffffffffffffffffffffffff1673ffffffffffffffffffffffffffffffffffffffff16815260200190815260200160002060009054906101000a900460ff1615151415610a095760016000803373ffffffffffffffffffffffffffffffffffffffff1673ffffffffffffffffffffffffffffffffffffffff16815260200190815260200160002060006101000a81548160ff02191690831515021790555060016000815480929190610a03906111d7565b91905055505b5b346004600083815260200190815260200160002060080160003373ffffffffffffffffffffffffffffffffffffffff1673ffffffffffffffffffffffffffffffffffffffff1681526020019081526020016000206000828254610a6d9190611220565b9250508190555034600460008381526020019081526020016000206005016000828254610a9a9190611220565b92505081905550600460008281526020019081526020016000206004015460046000838152602001908152602001600020600501541115610b265760046000828152602001908152602001600020600401546004600083815260200190815260200160002060050154610b0d91906113af565b60036000828254610b1e9190611220565b925050819055505b50565b828054610b35906112a5565b90600052602060002090601f016020900481019282610b575760008555610b9e565b82601f10610b7057805160ff1916838001178555610b9e565b82800160010185558215610b9e579182015b82811115610b9d578251825591602001919060010190610b82565b5b509050610bab9190610baf565b5090565b5b80821115610bc8576000816000905550600101610bb0565b5090565b6000819050919050565b610bdf81610bcc565b82525050565b6000602082019050610bfa6000830184610bd6565b92915050565b600073ffffffffffffffffffffffffffffffffffffffff82169050919050565b6000610c2b82610c00565b9050919050565b610c3b81610c20565b82525050565b6000602082019050610c566000830184610c32565b92915050565b6000604051905090565b600080fd5b600080fd5b610c7981610bcc565b8114610c8457600080fd5b50565b600081359050610c9681610c70565b92915050565b600060208284031215610cb257610cb1610c66565b5b6000610cc084828501610c87565b91505092915050565b600080fd5b600080fd5b6000601f19601f8301169050919050565b7f4e487b7100000000000000000000000000000000000000000000000000000000600052604160045260246000fd5b610d1c82610cd3565b810181811067ffffffffffffffff82111715610d3b57610d3a610ce4565b5b80604052505050565b6000610d4e610c5c565b9050610d5a8282610d13565b919050565b600067ffffffffffffffff821115610d7a57610d79610ce4565b5b610d8382610cd3565b9050602081019050919050565b82818337600083830152505050565b6000610db2610dad84610d5f565b610d44565b905082815260208101848484011115610dce57610dcd610cce565b5b610dd9848285610d90565b509392505050565b600082601f830112610df657610df5610cc9565b5b8135610e06848260208601610d9f565b91505092915050565b6000610e1a82610c00565b9050919050565b610e2a81610e0f565b8114610e3557600080fd5b50565b600081359050610e4781610e21565b92915050565b600080600080600060a08688031215610e6957610e68610c66565b5b600086013567ffffffffffffffff811115610e8757610e86610c6b565b5b610e9388828901610de1565b955050602086013567ffffffffffffffff811115610eb457610eb3610c6b565b5b610ec088828901610de1565b9450506040610ed188828901610e38565b9350506060610ee288828901610c87565b9250506080610ef388828901610c87565b9150509295509295909350565b600081519050919050565b600082825260208201905092915050565b60005b83811015610f3a578082015181840152602081019050610f1f565b83811115610f49576000848401525b50505050565b6000610f5a82610f00565b610f648185610f0b565b9350610f74818560208601610f1c565b610f7d81610cd3565b840191505092915050565b610f9181610e0f565b82525050565b60008115159050919050565b610fac81610f97565b82525050565b6000610100820190508181036000830152610fcd818b610f4f565b90508181036020830152610fe1818a610f4f565b9050610ff06040830189610f88565b610ffd6060830188610bd6565b61100a6080830187610bd6565b61101760a0830186610bd6565b61102460c0830185610fa3565b61103160e0830184610bd6565b9998505050505050505050565b7f4f6e6c79206d616e616765722063616e2063616c6c6c20746869732066756e6360008201527f74696f6e00000000000000000000000000000000000000000000000000000000602082015250565b600061109a602483610f0b565b91506110a58261103e565b604082019050919050565b600060208201905081810360008301526110c98161108d565b9050919050565b7f546172676574206e6f7420416368656976656420596574000000000000000000600082015250565b6000611106601783610f0b565b9150611111826110d0565b602082019050919050565b60006020820190508181036000830152611135816110f9565b9050919050565b7f546865207265717565737420686173206265656e20636f6d706c657465640000600082015250565b6000611172601e83610f0b565b915061117d8261113c565b602082019050919050565b600060208201905081810360008301526111a181611165565b9050919050565b7f4e487b7100000000000000000000000000000000000000000000000000000000600052601160045260246000fd5b60006111e282610bcc565b91507fffffffffffffffffffffffffffffffffffffffffffffffffffffffffffffffff821415611215576112146111a8565b5b600182019050919050565b600061122b82610bcc565b915061123683610bcc565b9250827fffffffffffffffffffffffffffffffffffffffffffffffffffffffffffffffff0382111561126b5761126a6111a8565b5b828201905092915050565b7f4e487b7100000000000000000000000000000000000000000000000000000000600052602260045260246000fd5b600060028204905060018216806112bd57607f821691505b602082108114156112d1576112d0611276565b5b50919050565b7f646561646c696e65207061737365640000000000000000000000000000000000600082015250565b600061130d600f83610f0b565b9150611318826112d7565b602082019050919050565b6000602082019050818103600083015261133c81611300565b9050919050565b7f7461726765742041636869657665640000000000000000000000000000000000600082015250565b6000611379600f83610f0b565b915061138482611343565b602082019050919050565b600060208201905081810360008301526113a88161136c565b9050919050565b60006113ba82610bcc565b91506113c583610bcc565b9250828210156113d8576113d76111a8565b5b82820390509291505056fea2646970667358221220b305ad103831727ef703fdc2789c11d5c38ad73b97629a50480e5a1ae2b29a4e64736f6c63430008090033",
  "immutableReferences": {},
  "source": "// SPDX-License-Identifier: MIT\r\npragma solidity ^0.8.7;\r\n\r\ncontract Crowdfunding {\r\n    mapping(address => bool) contributors;\r\n    uint256 public cont;\r\n    address public manager;\r\n    uint256 public extra;\r\n    struct Request {\r\n        string category;\r\n        string description;\r\n        address payable recipient;\r\n        uint256 deadline;\r\n        uint256 target;\r\n        uint256 raisedAmount;\r\n        bool completed;\r\n        uint256 noOfDonors;\r\n        mapping(address => uint256) donors;\r\n    }\r\n    mapping(uint256 => Request) public requests;\r\n    uint256 public numRequests;\r\n\r\n    constructor() {\r\n        manager = msg.sender;\r\n    }\r\n\r\n    function sendEth(uint256 i) public payable {\r\n        require(block.timestamp < requests[i].deadline, \"deadline passed\");\r\n        require(\r\n            requests[i].raisedAmount < requests[i].target,\r\n            \"target Achieved\"\r\n        );\r\n        if (requests[i].donors[msg.sender] == 0) {\r\n            requests[i].noOfDonors++;\r\n            if (contributors[msg.sender] == false) {\r\n                contributors[msg.sender] = true;\r\n                cont++;\r\n            }\r\n        }\r\n        requests[i].donors[msg.sender] += msg.value;\r\n        requests[i].raisedAmount += msg.value;\r\n\r\n        if (requests[i].raisedAmount > requests[i].target) {\r\n            extra += (requests[i].raisedAmount - requests[i].target);\r\n        }\r\n    }\r\n\r\n    modifier onlyManger() {\r\n        require(msg.sender == manager, \"Only manager can calll this function\");\r\n        _;\r\n    }\r\n\r\n    function getContractBalance() public view onlyManger returns (uint256) {\r\n        return address(this).balance;\r\n    }\r\n\r\n    function createRequests(\r\n        string memory _category,\r\n        string memory _description,\r\n        address payable _recipient,\r\n        uint256 _time,\r\n        uint256 _target\r\n    ) public onlyManger {\r\n        Request storage newRequest = requests[numRequests];\r\n        numRequests++;\r\n        newRequest.category = _category;\r\n        newRequest.description = _description;\r\n        newRequest.recipient = _recipient;\r\n        newRequest.deadline = block.timestamp + _time;\r\n        newRequest.target = _target;\r\n        newRequest.raisedAmount = 0;\r\n        newRequest.completed = false;\r\n        newRequest.noOfDonors = 0;\r\n    }\r\n\r\n    function makePayment(uint256 i) external onlyManger {\r\n        require(\r\n            requests[i].raisedAmount >= requests[i].target,\r\n            \"Target not Acheived Yet\"\r\n        );\r\n        Request storage thisRequest = requests[i];\r\n        require(\r\n            thisRequest.completed == false,\r\n            \"The request has been completed\"\r\n        );\r\n        payable(thisRequest.recipient).transfer(thisRequest.target);\r\n        thisRequest.completed = true;\r\n    }\r\n}\r\n",
  "sourcePath": "D:\\Bootcamps\\Blockchain Bootcamp\\Projects\\Crowdfunding\\contracts\\Crowdfunding.sol",
  "compiler": {
    "name": "solc",
    "version": "0.8.9+commit.e5eed63a.Emscripten.clang"
  },
  "schemaVersion": "3.4.3",
  "updatedAt": "2022-02-24T09:20:51.755Z",
  "networkType": "ethereum",
  "devdoc": {
    "kind": "dev",
    "methods": {},
    "version": 1
  },
  "userdoc": {
    "kind": "user",
    "methods": {},
    "version": 1
  }
}