{
  "contractName": "Decentralized_CrowdFunding_Contract",
  "abi": [
    {
      "inputs": [
        {
          "internalType": "uint256",
          "name": "_Target",
          "type": "uint256"
        },
        {
          "internalType": "uint256",
          "name": "_Deadline",
          "type": "uint256"
        }
      ],
      "stateMutability": "nonpayable",
      "type": "constructor"
    },
    {
      "inputs": [],
      "name": "Deadline",
      "outputs": [
        {
          "internalType": "uint256",
          "name": "",
          "type": "uint256"
        }
      ],
      "stateMutability": "view",
      "type": "function"
    },
    {
      "inputs": [],
      "name": "MinContribution",
      "outputs": [
        {
          "internalType": "uint256",
          "name": "",
          "type": "uint256"
        }
      ],
      "stateMutability": "view",
      "type": "function"
    },
    {
      "inputs": [],
      "name": "Noofcontributors",
      "outputs": [
        {
          "internalType": "uint256",
          "name": "",
          "type": "uint256"
        }
      ],
      "stateMutability": "view",
      "type": "function"
    },
    {
      "inputs": [],
      "name": "NumOfRequests",
      "outputs": [
        {
          "internalType": "uint256",
          "name": "",
          "type": "uint256"
        }
      ],
      "stateMutability": "view",
      "type": "function"
    },
    {
      "inputs": [],
      "name": "Raisedamount",
      "outputs": [
        {
          "internalType": "uint256",
          "name": "",
          "type": "uint256"
        }
      ],
      "stateMutability": "view",
      "type": "function"
    },
    {
      "inputs": [],
      "name": "Target",
      "outputs": [
        {
          "internalType": "uint256",
          "name": "",
          "type": "uint256"
        }
      ],
      "stateMutability": "view",
      "type": "function"
    },
    {
      "inputs": [
        {
          "internalType": "address",
          "name": "",
          "type": "address"
        }
      ],
      "name": "contributors",
      "outputs": [
        {
          "internalType": "uint256",
          "name": "",
          "type": "uint256"
        }
      ],
      "stateMutability": "view",
      "type": "function"
    },
    {
      "inputs": [],
      "name": "manager",
      "outputs": [
        {
          "internalType": "address",
          "name": "",
          "type": "address"
        }
      ],
      "stateMutability": "view",
      "type": "function"
    },
    {
      "inputs": [
        {
          "internalType": "uint256",
          "name": "",
          "type": "uint256"
        }
      ],
      "name": "requests",
      "outputs": [
        {
          "internalType": "string",
          "name": "description",
          "type": "string"
        },
        {
          "internalType": "address payable",
          "name": "recepient",
          "type": "address"
        },
        {
          "internalType": "uint256",
          "name": "value",
          "type": "uint256"
        },
        {
          "internalType": "bool",
          "name": "completed",
          "type": "bool"
        },
        {
          "internalType": "uint256",
          "name": "noofVoters",
          "type": "uint256"
        }
      ],
      "stateMutability": "view",
      "type": "function"
    },
    {
      "inputs": [],
      "name": "SendEther",
      "outputs": [],
      "stateMutability": "payable",
      "type": "function"
    },
    {
      "inputs": [],
      "name": "getContractBalance",
      "outputs": [
        {
          "internalType": "uint256",
          "name": "",
          "type": "uint256"
        }
      ],
      "stateMutability": "view",
      "type": "function"
    },
    {
      "inputs": [],
      "name": "refund",
      "outputs": [],
      "stateMutability": "nonpayable",
      "type": "function"
    },
    {
      "inputs": [
        {
          "internalType": "string",
          "name": "_description",
          "type": "string"
        },
        {
          "internalType": "address payable",
          "name": "_recepient",
          "type": "address"
        },
        {
          "internalType": "uint256",
          "name": "_value",
          "type": "uint256"
        }
      ],
      "name": "createRequests",
      "outputs": [],
      "stateMutability": "nonpayable",
      "type": "function"
    },
    {
      "inputs": [
        {
          "internalType": "uint256",
          "name": "_RequestNo",
          "type": "uint256"
        }
      ],
      "name": "voteRequests",
      "outputs": [],
      "stateMutability": "nonpayable",
      "type": "function"
    },
    {
      "inputs": [
        {
          "internalType": "uint256",
          "name": "request_no",
          "type": "uint256"
        }
      ],
      "name": "makePayments",
      "outputs": [],
      "stateMutability": "nonpayable",
      "type": "function"
    }
  ],
  "bytecode": "0x60806040523480156200001157600080fd5b5060405162001a4e38038062001a4e8339818101604052810190620000379190620000e4565b8160008190555080426200004c91906200015a565b60018190555061012c60028190555033600360006101000a81548173ffffffffffffffffffffffffffffffffffffffff021916908373ffffffffffffffffffffffffffffffffffffffff1602179055505050620001b7565b600080fd5b6000819050919050565b620000be81620000a9565b8114620000ca57600080fd5b50565b600081519050620000de81620000b3565b92915050565b60008060408385031215620000fe57620000fd620000a4565b5b60006200010e85828601620000cd565b92505060206200012185828601620000cd565b9150509250929050565b7f4e487b7100000000000000000000000000000000000000000000000000000000600052601160045260246000fd5b60006200016782620000a9565b91506200017483620000a9565b9250827fffffffffffffffffffffffffffffffffffffffffffffffffffffffffffffffff03821115620001ac57620001ab6200012b565b5b828201905092915050565b61188780620001c76000396000f3fe6080604052600436106100e85760003560e01c8063590e1ae31161008a57806381d12c581161005957806381d12c58146102be57806398865b71146102ff578063c1b977bf14610309578063c6f221aa14610334576100e8565b8063590e1ae314610228578063624fc04c1461023f5780636f9fb98a1461026a57806370ef09bd14610295576100e8565b80632ff3d0da116100c65780632ff3d0da1461017e5780633eb7647b146101a9578063481c6a75146101d25780634fe6f55f146101fd576100e8565b80631f6d4942146100ed57806328fa594a1461012a5780632c4fbe9814610153575b600080fd5b3480156100f957600080fd5b50610114600480360381019061010f9190610de9565b61035f565b6040516101219190610e2f565b60405180910390f35b34801561013657600080fd5b50610151600480360381019061014c9190610e76565b610377565b005b34801561015f57600080fd5b506101686105a1565b6040516101759190610e2f565b60405180910390f35b34801561018a57600080fd5b506101936105a7565b6040516101a09190610e2f565b60405180910390f35b3480156101b557600080fd5b506101d060048036038101906101cb9190611027565b6105ad565b005b3480156101de57600080fd5b506101e7610700565b6040516101f491906110a5565b60405180910390f35b34801561020957600080fd5b50610212610726565b60405161021f9190610e2f565b60405180910390f35b34801561023457600080fd5b5061023d61072c565b005b34801561024b57600080fd5b506102546108d4565b6040516102619190610e2f565b60405180910390f35b34801561027657600080fd5b5061027f6108da565b60405161028c9190610e2f565b60405180910390f35b3480156102a157600080fd5b506102bc60048036038101906102b79190610e76565b6108e2565b005b3480156102ca57600080fd5b506102e560048036038101906102e09190610e76565b610a82565b6040516102f6959493929190611172565b60405180910390f35b610307610b6d565b005b34801561031557600080fd5b5061031e610cc8565b60405161032b9190610e2f565b60405180910390f35b34801561034057600080fd5b50610349610cce565b6040516103569190610e2f565b60405180910390f35b60066020528060005260406000206000915090505481565b600360009054906101000a900473ffffffffffffffffffffffffffffffffffffffff1673ffffffffffffffffffffffffffffffffffffffff163373ffffffffffffffffffffffffffffffffffffffff1614610407576040517f08c379a00000000000000000000000000000000000000000000000000000000081526004016103fe9061123e565b60405180910390fd5b600054600454101561044e576040517f08c379a0000000000000000000000000000000000000000000000000000000008152600401610445906112d0565b60405180910390fd5b6000600860008381526020019081526020016000209050600015158160030160009054906101000a900460ff161515146104bd576040517f08c379a00000000000000000000000000000000000000000000000000000000081526004016104b49061133c565b60405180910390fd5b60026005546104cc91906113ba565b816004015411610511576040517f08c379a000000000000000000000000000000000000000000000000000000000815260040161050890611437565b60405180910390fd5b8060010160009054906101000a900473ffffffffffffffffffffffffffffffffffffffff1673ffffffffffffffffffffffffffffffffffffffff166108fc82600201549081150290604051600060405180830381858888f1935050505015801561057f573d6000803e3d6000fd5b5060018160030160006101000a81548160ff0219169083151502179055505050565b60075481565b60055481565b600360009054906101000a900473ffffffffffffffffffffffffffffffffffffffff1673ffffffffffffffffffffffffffffffffffffffff163373ffffffffffffffffffffffffffffffffffffffff161461063d576040517f08c379a00000000000000000000000000000000000000000000000000000000081526004016106349061123e565b60405180910390fd5b600060086000600754815260200190815260200160002090506007600081548092919061066990611457565b919050555083816000019080519060200190610686929190610cd4565b50828160010160006101000a81548173ffffffffffffffffffffffffffffffffffffffff021916908373ffffffffffffffffffffffffffffffffffffffff16021790555081816002018190555060008160030160006101000a81548160ff0219169083151502179055506000816004018190555050505050565b600360009054906101000a900473ffffffffffffffffffffffffffffffffffffffff1681565b60005481565b600154421180156107405750600054600454105b61077f576040517f08c379a0000000000000000000000000000000000000000000000000000000008152600401610776906114ec565b60405180910390fd5b6000600660003373ffffffffffffffffffffffffffffffffffffffff1673ffffffffffffffffffffffffffffffffffffffff1681526020019081526020016000205411610801576040517f08c379a00000000000000000000000000000000000000000000000000000000081526004016107f89061157e565b60405180910390fd5b60003390508073ffffffffffffffffffffffffffffffffffffffff166108fc600660008473ffffffffffffffffffffffffffffffffffffffff1673ffffffffffffffffffffffffffffffffffffffff168152602001908152602001600020549081150290604051600060405180830381858888f1935050505015801561088b573d6000803e3d6000fd5b506000600660008373ffffffffffffffffffffffffffffffffffffffff1673ffffffffffffffffffffffffffffffffffffffff1681526020019081526020016000208190555050565b60045481565b600047905090565b6000600660003373ffffffffffffffffffffffffffffffffffffffff1673ffffffffffffffffffffffffffffffffffffffff1681526020019081526020016000205411610964576040517f08c379a000000000000000000000000000000000000000000000000000000000815260040161095b90611610565b60405180910390fd5b6000600860008381526020019081526020016000209050600015158160050160003373ffffffffffffffffffffffffffffffffffffffff1673ffffffffffffffffffffffffffffffffffffffff16815260200190815260200160002060009054906101000a900460ff16151514610a10576040517f08c379a0000000000000000000000000000000000000000000000000000000008152600401610a079061167c565b60405180910390fd5b600115158160050160003373ffffffffffffffffffffffffffffffffffffffff1673ffffffffffffffffffffffffffffffffffffffff16815260200190815260200160002060009054906101000a905050506001816004016000828254610a77919061169c565b925050819055505050565b6008602052806000526040600020600091509050806000018054610aa590611721565b80601f0160208091040260200160405190810160405280929190818152602001828054610ad190611721565b8015610b1e5780601f10610af357610100808354040283529160200191610b1e565b820191906000526020600020905b815481529060010190602001808311610b0157829003601f168201915b5050505050908060010160009054906101000a900473ffffffffffffffffffffffffffffffffffffffff16908060020154908060030160009054906101000a900460ff16908060040154905085565b6001544210610bb1576040517f08c379a0000000000000000000000000000000000000000000000000000000008152600401610ba89061179f565b60405180910390fd5b600254341015610bf6576040517f08c379a0000000000000000000000000000000000000000000000000000000008152600401610bed90611831565b60405180910390fd5b6000600660003373ffffffffffffffffffffffffffffffffffffffff1673ffffffffffffffffffffffffffffffffffffffff168152602001908152602001600020541415610c575760056000815480929190610c5190611457565b91905055505b34600660003373ffffffffffffffffffffffffffffffffffffffff1673ffffffffffffffffffffffffffffffffffffffff1681526020019081526020016000206000828254610ca6919061169c565b925050819055503460046000828254610cbf919061169c565b92505081905550565b60025481565b60015481565b828054610ce090611721565b90600052602060002090601f016020900481019282610d025760008555610d49565b82601f10610d1b57805160ff1916838001178555610d49565b82800160010185558215610d49579182015b82811115610d48578251825591602001919060010190610d2d565b5b509050610d569190610d5a565b5090565b5b80821115610d73576000816000905550600101610d5b565b5090565b6000604051905090565b600080fd5b600080fd5b600073ffffffffffffffffffffffffffffffffffffffff82169050919050565b6000610db682610d8b565b9050919050565b610dc681610dab565b8114610dd157600080fd5b50565b600081359050610de381610dbd565b92915050565b600060208284031215610dff57610dfe610d81565b5b6000610e0d84828501610dd4565b91505092915050565b6000819050919050565b610e2981610e16565b82525050565b6000602082019050610e446000830184610e20565b92915050565b610e5381610e16565b8114610e5e57600080fd5b50565b600081359050610e7081610e4a565b92915050565b600060208284031215610e8c57610e8b610d81565b5b6000610e9a84828501610e61565b91505092915050565b600080fd5b600080fd5b6000601f19601f8301169050919050565b7f4e487b7100000000000000000000000000000000000000000000000000000000600052604160045260246000fd5b610ef682610ead565b810181811067ffffffffffffffff82111715610f1557610f14610ebe565b5b80604052505050565b6000610f28610d77565b9050610f348282610eed565b919050565b600067ffffffffffffffff821115610f5457610f53610ebe565b5b610f5d82610ead565b9050602081019050919050565b82818337600083830152505050565b6000610f8c610f8784610f39565b610f1e565b905082815260208101848484011115610fa857610fa7610ea8565b5b610fb3848285610f6a565b509392505050565b600082601f830112610fd057610fcf610ea3565b5b8135610fe0848260208601610f79565b91505092915050565b6000610ff482610d8b565b9050919050565b61100481610fe9565b811461100f57600080fd5b50565b60008135905061102181610ffb565b92915050565b6000806000606084860312156110405761103f610d81565b5b600084013567ffffffffffffffff81111561105e5761105d610d86565b5b61106a86828701610fbb565b935050602061107b86828701611012565b925050604061108c86828701610e61565b9150509250925092565b61109f81610dab565b82525050565b60006020820190506110ba6000830184611096565b92915050565b600081519050919050565b600082825260208201905092915050565b60005b838110156110fa5780820151818401526020810190506110df565b83811115611109576000848401525b50505050565b600061111a826110c0565b61112481856110cb565b93506111348185602086016110dc565b61113d81610ead565b840191505092915050565b61115181610fe9565b82525050565b60008115159050919050565b61116c81611157565b82525050565b600060a082019050818103600083015261118c818861110f565b905061119b6020830187611148565b6111a86040830186610e20565b6111b56060830185611163565b6111c26080830184610e20565b9695505050505050565b7f4f6e6c79206d616e616765722063616e2063616c6c20746869732066756e637460008201527f696f6e0000000000000000000000000000000000000000000000000000000000602082015250565b60006112286023836110cb565b9150611233826111cc565b604082019050919050565b600060208201905081810360008301526112578161121b565b9050919050565b7f54686520636f6e747269627574696f6e20686173206e6f74207265616368656460008201527f20746865207461726765742076616c7565000000000000000000000000000000602082015250565b60006112ba6031836110cb565b91506112c58261125e565b604082019050919050565b600060208201905081810360008301526112e9816112ad565b9050919050565b7f5061796d656e7420616c726561647920636f6d706c6574656400000000000000600082015250565b60006113266019836110cb565b9150611331826112f0565b602082019050919050565b6000602082019050818103600083015261135581611319565b9050919050565b7f4e487b7100000000000000000000000000000000000000000000000000000000600052601260045260246000fd5b7f4e487b7100000000000000000000000000000000000000000000000000000000600052601160045260246000fd5b60006113c582610e16565b91506113d083610e16565b9250826113e0576113df61135c565b5b828204905092915050565b7f4d616a6f7269747920646f6e7420737570706f727420796f7500000000000000600082015250565b60006114216019836110cb565b915061142c826113eb565b602082019050919050565b6000602082019050818103600083015261145081611414565b9050919050565b600061146282610e16565b91507fffffffffffffffffffffffffffffffffffffffffffffffffffffffffffffffff8214156114955761149461138b565b5b600182019050919050565b7f526566756e64206e6f7420706f737369626c6500000000000000000000000000600082015250565b60006114d66013836110cb565b91506114e1826114a0565b602082019050919050565b60006020820190508181036000830152611505816114c9565b9050919050565b7f466972737420796f75206e65656420746f206265206120636f6e74726962757460008201527f6f72000000000000000000000000000000000000000000000000000000000000602082015250565b60006115686022836110cb565b91506115738261150c565b604082019050919050565b600060208201905081810360008301526115978161155b565b9050919050565b7f596f75206e65656420746f206265206120636f6e7472696275746f722066697260008201527f737420746f20766f746500000000000000000000000000000000000000000000602082015250565b60006115fa602a836110cb565b91506116058261159e565b604082019050919050565b60006020820190508181036000830152611629816115ed565b9050919050565b7f596f75206861766520616c726561647920766f74656400000000000000000000600082015250565b60006116666016836110cb565b915061167182611630565b602082019050919050565b6000602082019050818103600083015261169581611659565b9050919050565b60006116a782610e16565b91506116b283610e16565b9250827fffffffffffffffffffffffffffffffffffffffffffffffffffffffffffffffff038211156116e7576116e661138b565b5b828201905092915050565b7f4e487b7100000000000000000000000000000000000000000000000000000000600052602260045260246000fd5b6000600282049050600182168061173957607f821691505b6020821081141561174d5761174c6116f2565b5b50919050565b7f446561646c696e6520686173206265656e207061737365640000000000000000600082015250565b60006117896018836110cb565b915061179482611753565b602082019050919050565b600060208201905081810360008301526117b88161177c565b9050919050565b7f54686520616d6f756e7420752073656e7420646f65736e74206d65657420746860008201527f65206d696e696d756d20636f6e747269627574696f6e00000000000000000000602082015250565b600061181b6036836110cb565b9150611826826117bf565b604082019050919050565b6000602082019050818103600083015261184a8161180e565b905091905056fea2646970667358221220ac22af83e74210222ea73ecc31901dfbb158ffe9d582601cd3faff89e947f7c264736f6c63430008090033",
  "immutableReferences": {},
  "source": "// SPDX-License-Identifier: MIT\r\npragma solidity ^0.8.0;\r\n\r\n// Decentralized CrowdFunding smartcontract\r\ncontract Decentralized_CrowdFunding_Contract {\r\n    uint256 public Target;\r\n    uint256 public Deadline;\r\n    uint256 public MinContribution;\r\n    address public manager;\r\n    uint256 public Raisedamount;\r\n    uint256 public Noofcontributors;\r\n    mapping(address => uint256) public contributors;\r\n\r\n    struct Request {\r\n        string description;\r\n        address payable recepient;\r\n        uint256 value;\r\n        bool completed;\r\n        uint256 noofVoters;\r\n        mapping(address => bool) voters;\r\n    }\r\n\r\n    uint256 public NumOfRequests;\r\n    mapping(uint256 => Request) public requests;\r\n\r\n    constructor(uint256 _Target, uint256 _Deadline) {\r\n        Target = _Target;\r\n        Deadline = block.timestamp + _Deadline;\r\n        MinContribution = 300 wei;\r\n        manager = msg.sender;\r\n    }\r\n\r\n    function SendEther() public payable {\r\n        require(block.timestamp < Deadline, \"Deadline has been passed\");\r\n        require(\r\n            msg.value >= MinContribution,\r\n            \"The amount u sent doesnt meet the minimum contribution\"\r\n        );\r\n\r\n        if (contributors[msg.sender] == 0) {\r\n            Noofcontributors++;\r\n        }\r\n\r\n        contributors[msg.sender] += msg.value;\r\n        Raisedamount += msg.value;\r\n    }\r\n\r\n    function getContractBalance() public view returns (uint256) {\r\n        return address(this).balance;\r\n    }\r\n\r\n    function refund() public {\r\n        require(\r\n            block.timestamp > Deadline && Raisedamount < Target,\r\n            \"Refund not possible\"\r\n        );\r\n        require(\r\n            contributors[msg.sender] > 0,\r\n            \"First you need to be a contributor\"\r\n        );\r\n        address payable person = payable(msg.sender);\r\n        person.transfer(contributors[person]);\r\n        contributors[person] = 0;\r\n    }\r\n\r\n    modifier OnlyManager() {\r\n        require(msg.sender == manager, \"Only manager can call this function\");\r\n        _;\r\n    }\r\n\r\n    function createRequests(\r\n        string memory _description,\r\n        address payable _recepient,\r\n        uint256 _value\r\n    ) public OnlyManager {\r\n        Request storage newRequest = requests[NumOfRequests];\r\n        NumOfRequests++;\r\n        newRequest.description = _description;\r\n        newRequest.recepient = _recepient;\r\n        newRequest.value = _value;\r\n        newRequest.completed = false;\r\n        newRequest.noofVoters = 0;\r\n    }\r\n\r\n    function voteRequests(uint256 _RequestNo) public {\r\n        require(\r\n            contributors[msg.sender] > 0,\r\n            \"You need to be a contributor first to vote\"\r\n        );\r\n        Request storage ThisRequest = requests[_RequestNo];\r\n        require(\r\n            ThisRequest.voters[msg.sender] == false,\r\n            \"You have already voted\"\r\n        );\r\n        ThisRequest.voters[msg.sender] == true;\r\n        ThisRequest.noofVoters += 1;\r\n    }\r\n\r\n    function makePayments(uint256 request_no) public OnlyManager {\r\n        require(\r\n            Raisedamount >= Target,\r\n            \"The contribution has not reached the target value\"\r\n        );\r\n        Request storage ThisRequest = requests[request_no];\r\n        require(ThisRequest.completed == false, \"Payment already completed\");\r\n        require(\r\n            ThisRequest.noofVoters > Noofcontributors / 2,\r\n            \"Majority dont support you\"\r\n        );\r\n        ThisRequest.recepient.transfer(ThisRequest.value);\r\n        ThisRequest.completed = true;\r\n    }\r\n}\r\n",
  "sourcePath": "D:\\Bootcamps\\Blockchain Bootcamp\\Projects\\Crowdfunding\\contracts\\Crowdfunding.sol",
  "compiler": {
    "name": "solc",
    "version": "0.8.9+commit.e5eed63a.Emscripten.clang"
  },
  "schemaVersion": "3.4.3",
  "updatedAt": "2022-02-22T15:59:16.836Z",
  "devdoc": {
    "kind": "dev",
    "methods": {},
    "version": 1
  },
  "userdoc": {
    "kind": "user",
    "methods": {},
    "version": 1
  }
}